{
  "contractName": "CryptoKoffee",
  "abi": [
    {
      "inputs": [],
      "stateMutability": "nonpayable",
      "type": "constructor"
    },
    {
      "anonymous": false,
      "inputs": [
        {
          "indexed": false,
          "internalType": "uint256",
          "name": "_amount",
          "type": "uint256"
        },
        {
          "indexed": false,
          "internalType": "address",
          "name": "doner",
          "type": "address"
        },
        {
          "indexed": false,
          "internalType": "uint256",
          "name": "timeStamp",
          "type": "uint256"
        }
      ],
      "name": "DonationEvent",
      "type": "event"
    },
    {
      "anonymous": false,
      "inputs": [
        {
          "indexed": false,
          "internalType": "uint256",
          "name": "amount",
          "type": "uint256"
        },
        {
          "indexed": false,
          "internalType": "uint256",
          "name": "timeStamp",
          "type": "uint256"
        },
        {
          "indexed": false,
          "internalType": "address",
          "name": "sender",
          "type": "address"
        },
        {
          "indexed": false,
          "internalType": "address",
          "name": "receipient",
          "type": "address"
        },
        {
          "indexed": false,
          "internalType": "string",
          "name": "description",
          "type": "string"
        }
      ],
      "name": "PaymentEvent",
      "type": "event"
    },
    {
      "anonymous": false,
      "inputs": [
        {
          "indexed": false,
          "internalType": "bytes32",
          "name": "name",
          "type": "bytes32"
        },
        {
          "indexed": false,
          "internalType": "bytes32",
          "name": "link",
          "type": "bytes32"
        },
        {
          "indexed": false,
          "internalType": "address",
          "name": "walletAddress",
          "type": "address"
        },
        {
          "indexed": false,
          "internalType": "uint256",
          "name": "currentWalletBalance",
          "type": "uint256"
        },
        {
          "indexed": false,
          "internalType": "uint256",
          "name": "numOfDonations",
          "type": "uint256"
        }
      ],
      "name": "WalletInfoEvent",
      "type": "event"
    },
    {
      "inputs": [],
      "name": "owner",
      "outputs": [
        {
          "internalType": "address",
          "name": "",
          "type": "address"
        }
      ],
      "stateMutability": "view",
      "type": "function",
      "constant": true
    },
    {
      "inputs": [
        {
          "internalType": "address",
          "name": "",
          "type": "address"
        }
      ],
      "name": "payments",
      "outputs": [
        {
          "internalType": "uint256",
          "name": "amount",
          "type": "uint256"
        },
        {
          "internalType": "uint256",
          "name": "timeStamp",
          "type": "uint256"
        },
        {
          "internalType": "address",
          "name": "sender",
          "type": "address"
        },
        {
          "internalType": "address",
          "name": "receipient",
          "type": "address"
        },
        {
          "internalType": "string",
          "name": "description",
          "type": "string"
        }
      ],
      "stateMutability": "view",
      "type": "function",
      "constant": true
    },
    {
      "inputs": [],
      "name": "totalBalance",
      "outputs": [
        {
          "internalType": "uint256",
          "name": "",
          "type": "uint256"
        }
      ],
      "stateMutability": "view",
      "type": "function",
      "constant": true
    },
    {
      "inputs": [],
      "name": "totalNumberOfDonations",
      "outputs": [
        {
          "internalType": "uint256",
          "name": "",
          "type": "uint256"
        }
      ],
      "stateMutability": "view",
      "type": "function",
      "constant": true
    },
    {
      "inputs": [
        {
          "internalType": "string",
          "name": "_string",
          "type": "string"
        }
      ],
      "name": "hash",
      "outputs": [
        {
          "internalType": "bytes32",
          "name": "",
          "type": "bytes32"
        }
      ],
      "stateMutability": "pure",
      "type": "function",
      "constant": true
    },
    {
      "inputs": [
        {
          "internalType": "string",
          "name": "_name",
          "type": "string"
        },
        {
          "internalType": "string",
          "name": "_link",
          "type": "string"
        }
      ],
      "name": "createWallet",
      "outputs": [],
      "stateMutability": "nonpayable",
      "type": "function"
    },
    {
      "inputs": [],
      "name": "getWallet",
      "outputs": [
        {
          "internalType": "bytes32",
          "name": "name",
          "type": "bytes32"
        },
        {
          "internalType": "bytes32",
          "name": "link",
          "type": "bytes32"
        },
        {
          "internalType": "address",
          "name": "walletAddress",
          "type": "address"
        },
        {
          "internalType": "uint256",
          "name": "walletBalance",
          "type": "uint256"
        },
        {
          "internalType": "uint256",
          "name": "numOfDonations",
          "type": "uint256"
        }
      ],
      "stateMutability": "nonpayable",
      "type": "function"
    },
    {
      "inputs": [
        {
          "internalType": "address",
          "name": "donationAddress",
          "type": "address"
        }
      ],
      "name": "donate",
      "outputs": [],
      "stateMutability": "payable",
      "type": "function",
      "payable": true
    },
    {
      "inputs": [],
      "name": "getDonationBalance",
      "outputs": [
        {
          "internalType": "uint256",
          "name": "",
          "type": "uint256"
        }
      ],
      "stateMutability": "view",
      "type": "function",
      "constant": true
    },
    {
      "inputs": [
        {
          "internalType": "address payable",
          "name": "_to",
          "type": "address"
        },
        {
          "internalType": "uint256",
          "name": "_amount",
          "type": "uint256"
        }
      ],
      "name": "withdrawFunds",
      "outputs": [],
      "stateMutability": "payable",
      "type": "function",
      "payable": true
    }
  ],
  "bytecode": "0x608060405234801561001057600080fd5b50336000806101000a81548173ffffffffffffffffffffffffffffffffffffffff021916908373ffffffffffffffffffffffffffffffffffffffff160217905550611c6e806100606000396000f3fe6080604052600436106100905760003560e01c80638da5cb5b116100595780638da5cb5b1461015f578063ad7a672f1461018a578063b411ee94146101b5578063c1075329146101f2578063e2982c211461020e57610090565b8062362a951461009557806313299604146100b157806379cf134a146100e0578063812770791461010b578063864db27b14610134575b600080fd5b6100af60048036038101906100aa91906110a6565b61024f565b005b3480156100bd57600080fd5b506100c661065a565b6040516100d7959493929190611425565b60405180910390f35b3480156100ec57600080fd5b506100f5610821565b6040516101029190611538565b60405180910390f35b34801561011757600080fd5b50610132600480360381019061012d919061114c565b610827565b005b34801561014057600080fd5b50610149610a50565b6040516101569190611538565b60405180910390f35b34801561016b57600080fd5b50610174610a58565b604051610181919061139c565b60405180910390f35b34801561019657600080fd5b5061019f610a7c565b6040516101ac9190611538565b60405180910390f35b3480156101c157600080fd5b506101dc60048036038101906101d7919061110b565b610a82565b6040516101e991906113b7565b60405180910390f35b61020c600480360381019061020791906110cf565b610ab2565b005b34801561021a57600080fd5b50610235600480360381019061023091906110a6565b610e5e565b6040516102469594939291906115e2565b60405180910390f35b80600073ffffffffffffffffffffffffffffffffffffffff16600460008373ffffffffffffffffffffffffffffffffffffffff1673ffffffffffffffffffffffffffffffffffffffff16815260200190815260200160002060020160009054906101000a900473ffffffffffffffffffffffffffffffffffffffff1673ffffffffffffffffffffffffffffffffffffffff161415610322576040517f08c379a000000000000000000000000000000000000000000000000000000000815260040161031990611518565b60405180910390fd5b60003411610365576040517f08c379a000000000000000000000000000000000000000000000000000000000815260040161035c906114b8565b60405180910390fd5b6000349050806001600082825461037c9190611711565b9250508190555060006040518060a001604052808381526020014281526020013373ffffffffffffffffffffffffffffffffffffffff1681526020018573ffffffffffffffffffffffffffffffffffffffff1681526020016040518060400160405280600881526020017f646f6e6174696f6e000000000000000000000000000000000000000000000000815250815250905080600360003373ffffffffffffffffffffffffffffffffffffffff1673ffffffffffffffffffffffffffffffffffffffff168152602001908152602001600020600082015181600001556020820151816001015560408201518160020160006101000a81548173ffffffffffffffffffffffffffffffffffffffff021916908373ffffffffffffffffffffffffffffffffffffffff16021790555060608201518160030160006101000a81548173ffffffffffffffffffffffffffffffffffffffff021916908373ffffffffffffffffffffffffffffffffffffffff160217905550608082015181600401908051906020019061050d929190610f5c565b5090505060026000815480929190610524906118e0565b919050555081600460008673ffffffffffffffffffffffffffffffffffffffff1673ffffffffffffffffffffffffffffffffffffffff168152602001908152602001600020600301600082825461057b9190611711565b925050819055506001600460008673ffffffffffffffffffffffffffffffffffffffff1673ffffffffffffffffffffffffffffffffffffffff16815260200190815260200160002060040160008282546105d59190611711565b925050819055507fa228085e7275dcc4f28bf995f0505e0f611fe7023bef15856928c9233e3f6e0282854260405161060f93929190611553565b60405180910390a17f7071172028512c512f121c5b3869465631a658219bd44e20a9d7f1deaa33fb198242338760405161064c949392919061163c565b60405180910390a150505050565b6000806000806000600460003373ffffffffffffffffffffffffffffffffffffffff1673ffffffffffffffffffffffffffffffffffffffff168152602001908152602001600020600001549450600460003373ffffffffffffffffffffffffffffffffffffffff1673ffffffffffffffffffffffffffffffffffffffff168152602001908152602001600020600101549350600460003373ffffffffffffffffffffffffffffffffffffffff1673ffffffffffffffffffffffffffffffffffffffff16815260200190815260200160002060020160009054906101000a900473ffffffffffffffffffffffffffffffffffffffff169250600460003373ffffffffffffffffffffffffffffffffffffffff1673ffffffffffffffffffffffffffffffffffffffff168152602001908152602001600020600301549150600460003373ffffffffffffffffffffffffffffffffffffffff1673ffffffffffffffffffffffffffffffffffffffff1681526020019081526020016000206004015490507f4b0f6b674b63d3584fdf01c0b867752fc6b1bacd2cd54cf1ebb0f1f7f2d0a4908585858585604051610812959493929190611425565b60405180910390a19091929394565b60025481565b333373ffffffffffffffffffffffffffffffffffffffff16600460008373ffffffffffffffffffffffffffffffffffffffff1673ffffffffffffffffffffffffffffffffffffffff16815260200190815260200160002060020160009054906101000a900473ffffffffffffffffffffffffffffffffffffffff1673ffffffffffffffffffffffffffffffffffffffff1614156108f9576040517f08c379a00000000000000000000000000000000000000000000000000000000081526004016108f0906114d8565b60405180910390fd5b600061090484610a82565b9050600061091184610a82565b905060006040518060a001604052808481526020018381526020013373ffffffffffffffffffffffffffffffffffffffff168152602001600081526020016000815250905080600460003373ffffffffffffffffffffffffffffffffffffffff1673ffffffffffffffffffffffffffffffffffffffff168152602001908152602001600020600082015181600001556020820151816001015560408201518160020160006101000a81548173ffffffffffffffffffffffffffffffffffffffff021916908373ffffffffffffffffffffffffffffffffffffffff16021790555060608201518160030155608082015181600401559050507f4b0f6b674b63d3584fdf01c0b867752fc6b1bacd2cd54cf1ebb0f1f7f2d0a490838333600080604051610a409594939291906113d2565b60405180910390a1505050505050565b600047905090565b60008054906101000a900473ffffffffffffffffffffffffffffffffffffffff1681565b60015481565b600081604051602001610a959190611385565b604051602081830303815290604052805190602001209050919050565b333373ffffffffffffffffffffffffffffffffffffffff16600460008373ffffffffffffffffffffffffffffffffffffffff1673ffffffffffffffffffffffffffffffffffffffff16815260200190815260200160002060020160009054906101000a900473ffffffffffffffffffffffffffffffffffffffff1673ffffffffffffffffffffffffffffffffffffffff1614610b83576040517f08c379a0000000000000000000000000000000000000000000000000000000008152600401610b7a90611478565b60405180910390fd5b82600073ffffffffffffffffffffffffffffffffffffffff16600460008373ffffffffffffffffffffffffffffffffffffffff1673ffffffffffffffffffffffffffffffffffffffff16815260200190815260200160002060020160009054906101000a900473ffffffffffffffffffffffffffffffffffffffff1673ffffffffffffffffffffffffffffffffffffffff161415610c56576040517f08c379a0000000000000000000000000000000000000000000000000000000008152600401610c4d90611518565b60405180910390fd5b836000600460008373ffffffffffffffffffffffffffffffffffffffff1673ffffffffffffffffffffffffffffffffffffffff1681526020019081526020016000206003015411610cdc576040517f08c379a0000000000000000000000000000000000000000000000000000000008152600401610cd390611498565b60405180910390fd5b83600460008773ffffffffffffffffffffffffffffffffffffffff1673ffffffffffffffffffffffffffffffffffffffff168152602001908152602001600020600301541015610d61576040517f08c379a0000000000000000000000000000000000000000000000000000000008152600401610d58906114f8565b60405180910390fd5b83600460008773ffffffffffffffffffffffffffffffffffffffff1673ffffffffffffffffffffffffffffffffffffffff1681526020019081526020016000206003016000828254610db39190611767565b925050819055508360016000828254610dcc9190611767565b925050819055508473ffffffffffffffffffffffffffffffffffffffff166108fc859081150290604051600060405180830381858888f19350505050158015610e19573d6000803e3d6000fd5b507f7071172028512c512f121c5b3869465631a658219bd44e20a9d7f1deaa33fb1984423388604051610e4f949392919061158a565b60405180910390a15050505050565b60036020528060005260406000206000915090508060000154908060010154908060020160009054906101000a900473ffffffffffffffffffffffffffffffffffffffff16908060030160009054906101000a900473ffffffffffffffffffffffffffffffffffffffff1690806004018054610ed99061187d565b80601f0160208091040260200160405190810160405280929190818152602001828054610f059061187d565b8015610f525780601f10610f2757610100808354040283529160200191610f52565b820191906000526020600020905b815481529060010190602001808311610f3557829003601f168201915b5050505050905085565b828054610f689061187d565b90600052602060002090601f016020900481019282610f8a5760008555610fd1565b82601f10610fa357805160ff1916838001178555610fd1565b82800160010185558215610fd1579182015b82811115610fd0578251825591602001919060010190610fb5565b5b509050610fde9190610fe2565b5090565b5b80821115610ffb576000816000905550600101610fe3565b5090565b600061101261100d846116b9565b611694565b90508281526020810184848401111561102a57600080fd5b61103584828561183b565b509392505050565b60008135905061104c81611bf3565b92915050565b60008135905061106181611c0a565b92915050565b600082601f83011261107857600080fd5b8135611088848260208601610fff565b91505092915050565b6000813590506110a081611c21565b92915050565b6000602082840312156110b857600080fd5b60006110c68482850161103d565b91505092915050565b600080604083850312156110e257600080fd5b60006110f085828601611052565b925050602061110185828601611091565b9150509250929050565b60006020828403121561111d57600080fd5b600082013567ffffffffffffffff81111561113757600080fd5b61114384828501611067565b91505092915050565b6000806040838503121561115f57600080fd5b600083013567ffffffffffffffff81111561117957600080fd5b61118585828601611067565b925050602083013567ffffffffffffffff8111156111a257600080fd5b6111ae85828601611067565b9150509250929050565b6111c1816117f3565b82525050565b6111d08161179b565b82525050565b6111df816117bf565b82525050565b6111ee81611805565b82525050565b60006111ff826116ea565b61120981856116f5565b935061121981856020860161184a565b611222816119b6565b840191505092915050565b6000611238826116ea565b6112428185611706565b935061125281856020860161184a565b80840191505092915050565b600061126b602c836116f5565b9150611276826119c7565b604082019050919050565b600061128e6008836116f5565b915061129982611a16565b602082019050919050565b60006112b1602a836116f5565b91506112bc82611a3f565b604082019050919050565b60006112d46029836116f5565b91506112df82611a8e565b604082019050919050565b60006112f7602f836116f5565b915061130282611add565b604082019050919050565b600061131a6008836116f5565b915061132582611b2c565b602082019050919050565b600061133d6035836116f5565b915061134882611b55565b604082019050919050565b6000611360602f836116f5565b915061136b82611ba4565b604082019050919050565b61137f816117e9565b82525050565b6000611391828461122d565b915081905092915050565b60006020820190506113b160008301846111c7565b92915050565b60006020820190506113cc60008301846111d6565b92915050565b600060a0820190506113e760008301886111d6565b6113f460208301876111d6565b61140160408301866111c7565b61140e60608301856111e5565b61141b60808301846111e5565b9695505050505050565b600060a08201905061143a60008301886111d6565b61144760208301876111d6565b61145460408301866111c7565b6114616060830185611376565b61146e6080830184611376565b9695505050505050565b600060208201905081810360008301526114918161125e565b9050919050565b600060208201905081810360008301526114b1816112a4565b9050919050565b600060208201905081810360008301526114d1816112c7565b9050919050565b600060208201905081810360008301526114f1816112ea565b9050919050565b6000602082019050818103600083015261151181611330565b9050919050565b6000602082019050818103600083015261153181611353565b9050919050565b600060208201905061154d6000830184611376565b92915050565b60006060820190506115686000830186611376565b61157560208301856111c7565b6115826040830184611376565b949350505050565b600060a08201905061159f6000830187611376565b6115ac6020830186611376565b6115b960408301856111c7565b6115c660608301846111b8565b81810360808301526115d78161130d565b905095945050505050565b600060a0820190506115f76000830188611376565b6116046020830187611376565b61161160408301866111c7565b61161e60608301856111c7565b818103608083015261163081846111f4565b90509695505050505050565b600060a0820190506116516000830187611376565b61165e6020830186611376565b61166b60408301856111c7565b61167860608301846111c7565b818103608083015261168981611281565b905095945050505050565b600061169e6116af565b90506116aa82826118af565b919050565b6000604051905090565b600067ffffffffffffffff8211156116d4576116d3611987565b5b6116dd826119b6565b9050602081019050919050565b600081519050919050565b600082825260208201905092915050565b600081905092915050565b600061171c826117e9565b9150611727836117e9565b9250827fffffffffffffffffffffffffffffffffffffffffffffffffffffffffffffffff0382111561175c5761175b611929565b5b828201905092915050565b6000611772826117e9565b915061177d836117e9565b9250828210156117905761178f611929565b5b828203905092915050565b60006117a6826117c9565b9050919050565b60006117b8826117c9565b9050919050565b6000819050919050565b600073ffffffffffffffffffffffffffffffffffffffff82169050919050565b6000819050919050565b60006117fe82611817565b9050919050565b6000611810826117e9565b9050919050565b600061182282611829565b9050919050565b6000611834826117c9565b9050919050565b82818337600083830152505050565b60005b8381101561186857808201518184015260208101905061184d565b83811115611877576000848401525b50505050565b6000600282049050600182168061189557607f821691505b602082108114156118a9576118a8611958565b5b50919050565b6118b8826119b6565b810181811067ffffffffffffffff821117156118d7576118d6611987565b5b80604052505050565b60006118eb826117e9565b91507fffffffffffffffffffffffffffffffffffffffffffffffffffffffffffffffff82141561191e5761191d611929565b5b600182019050919050565b7f4e487b7100000000000000000000000000000000000000000000000000000000600052601160045260246000fd5b7f4e487b7100000000000000000000000000000000000000000000000000000000600052602260045260246000fd5b7f4e487b7100000000000000000000000000000000000000000000000000000000600052604160045260246000fd5b6000601f19601f8301169050919050565b7f4f6e6c792057616c6c6574206f776e65722063616e20706572666f726d20746860008201527f69732061637469766974792e0000000000000000000000000000000000000000602082015250565b7f646f6e6174696f6e000000000000000000000000000000000000000000000000600082015250565b7f596f7520646f6e2774206861766520656e6f7567682062616c616e636520746f60008201527f2077697468647261772e00000000000000000000000000000000000000000000602082015250565b7f5472616e7366657220616d6f756e742068617320746f2062652067726561746560008201527f72207468616e20302e0000000000000000000000000000000000000000000000602082015250565b7f412077616c6c657420697320616c7265616479206173736f636961746564207460008201527f6f207468697320616464726573732e0000000000000000000000000000000000602082015250565b7f7769746864726177000000000000000000000000000000000000000000000000600082015250565b7f596f752063616e2774207769746864726177206d6f7265207468616e20796f7560008201527f206861766520696e20796f75722077616c6c6574210000000000000000000000602082015250565b7f596f75722061646472657373206973206e6f742072656769737465726564206f60008201527f6e2043727970746f4b6f666665652e0000000000000000000000000000000000602082015250565b611bfc8161179b565b8114611c0757600080fd5b50565b611c13816117ad565b8114611c1e57600080fd5b50565b611c2a816117e9565b8114611c3557600080fd5b5056fea26469706673582212204b558753d8bed721bcac06541ecaed21122e080471ed6159f8b7380f56294bc864736f6c63430008040033",
  "immutableReferences": {},
  "source": "// SPDX-License-Identifier: MIT\npragma solidity ^0.8.4.0;\n\ncontract CryptoKoffee {\n    address public owner;\n    uint public totalBalance;\n    uint public totalNumberOfDonations;\n\n    struct Payment{\n        uint amount;\n        uint timeStamp;\n        address sender;\n        address receipient;\n        string description;\n    }\n\n    struct WalletInfo{\n        bytes32 name;\n        bytes32 link;\n        address walletAddress;\n        uint currentBalance;\n        uint numOfDonations;\n    }\n\n    // Track Payments\n    mapping(address => Payment) public payments;\n    // mapping(address => Balance) public balanceReceived;\n    mapping(address => WalletInfo) private walletMapping;\n\n    // Emit events \n    event DonationEvent(uint _amount, address doner, uint timeStamp);\n    event WalletInfoEvent(bytes32  name, bytes32  link, address walletAddress, uint currentWalletBalance, uint numOfDonations);\n    event PaymentEvent(uint amount, uint timeStamp,address sender, address receipient, string description);\n    \n    constructor(){\n        owner = msg.sender;\n    }\n\n    modifier onlyOwner(){\n        require(msg.sender == owner, \"You are not the owner\");\n        _;\n    }\n    \n    // Validates that the amount to transfer is not zero.\n    modifier validateTransferAmount() {\n        require(msg.value > 0, \"Transfer amount has to be greater than 0.\");\n        _;\n    }\n\n    modifier validateWalletOwner(address ownerAddress) {\n        require(walletMapping[ownerAddress].walletAddress == msg.sender, \"Only Wallet owner can perform this activity.\");\n        _;\n    }\n\n    // Validates that the amount to transfer is not zero.\n    modifier validateReciepientAddress(address receipientAddress) {\n        require(walletMapping[receipientAddress].walletAddress != 0x0000000000000000000000000000000000000000, \"Your address is not registered on CryptoKoffee.\");\n        _;\n    }\n\n    modifier validateIfWalletExists(address senderAddress) {\n        require(walletMapping[senderAddress].walletAddress != msg.sender, \"A wallet is already associated to this address.\");\n        _;\n    }\n\n    modifier validateReciepientBalance(address receipientAddress) {\n        require(walletMapping[receipientAddress].currentBalance > 0, \"You don't have enough balance to withdraw.\");\n        _;\n    }\n\n    function hash(string memory _string) public pure returns(bytes32) {\n     return keccak256(abi.encodePacked(_string));\n    }\n\n    /** Create wallet \n        Needs the connected wallet address 9900826\n        **remember to hash the _name and _link before sending to chain 8929eth\n    **/\n    function createWallet(string memory _name, string memory _link) validateIfWalletExists(msg.sender) public {\n        bytes32 hashName = hash(_name);\n        bytes32 hashLink = hash(_link);\n        WalletInfo memory _wallet = WalletInfo(hashName, hashLink, msg.sender, 0, 0);\n        walletMapping[msg.sender] = _wallet;\n        emit WalletInfoEvent(hashName, hashLink, msg.sender, 0, 0);\n    }\n    \n    function getWallet() public returns(bytes32 name, bytes32 link, address walletAddress, uint walletBalance, uint numOfDonations) {\n        name = walletMapping[msg.sender].name;\n        link = walletMapping[msg.sender].link;\n        walletAddress = walletMapping[msg.sender].walletAddress;\n        walletBalance = walletMapping[msg.sender].currentBalance;\n        numOfDonations = walletMapping[msg.sender].numOfDonations;\n        // Emit events after getting wallet info data\n        emit WalletInfoEvent(name, link, walletAddress, walletBalance, numOfDonations);\n        return (name, link, walletAddress, walletBalance, numOfDonations);\n    }\n\n    /** Donate function\n     [ Needs a wallet to make the donations to. ] \n     check if donation address has wallet associated with it.\n    **/\n    function donate(address donationAddress ) public payable validateReciepientAddress(donationAddress) validateTransferAmount {\n        uint _amount = msg.value;\n        totalBalance += _amount;\n        Payment memory payment = Payment(_amount, block.timestamp, msg.sender, donationAddress, \"donation\");\n        payments[msg.sender] = payment;\n        totalNumberOfDonations++;\n        walletMapping[donationAddress].currentBalance += _amount;\n        walletMapping[donationAddress].numOfDonations += 1;\n        emit DonationEvent(_amount, donationAddress, block.timestamp);\n        emit PaymentEvent(_amount, block.timestamp, msg.sender, donationAddress, \"donation\");\n    }\n\n    // Get donation balance from contract\n    function getDonationBalance() public view returns(uint){\n        return address(this).balance;\n    }\n\n    // Release funds from contract to project \n    function withdrawFunds(address payable _to, uint _amount) \n    validateWalletOwner(msg.sender) validateReciepientAddress(_to) \n    validateReciepientBalance(_to) \n    public payable {\n        require(walletMapping[_to].currentBalance >= _amount, \"You can't withdraw more than you have in your wallet!\");\n        walletMapping[_to].currentBalance -= _amount;\n        totalBalance -= _amount;                                                                                                                                                                                                                                                                                                                                                                                                                                                                                                                                                                                                                                                              \n        _to.transfer(_amount);\n        emit PaymentEvent(_amount, block.timestamp, msg.sender, _to, \"withdraw\");\n    }\n}\n",
  "sourcePath": "/Users/kenmartey/Documents/dev_things/blockchain/cryptokoffee/CryptoKoffee/contracts/CryptoKoffee.sol",
  "compiler": {
    "name": "solc",
    "version": "0.8.4+commit.c7e474f2.Emscripten.clang"
  },
  "schemaVersion": "3.4.8",
  "updatedAt": "2022-08-02T05:14:53.115Z",
  "networkType": "ethereum",
  "devdoc": {
    "kind": "dev",
    "methods": {},
    "version": 1
  },
  "userdoc": {
    "kind": "user",
    "methods": {
      "createWallet(string,string)": {
        "notice": "Create wallet  Needs the connected wallet address 9900826**remember to hash the _name and _link before sending to chain 8929eth*"
      },
      "donate(address)": {
        "notice": "Donate function [ Needs a wallet to make the donations to. ]  check if donation address has wallet associated with it.*"
      }
    },
    "version": 1
  }
}