{
  "contractName": "CryptoKoffee",
  "abi": [
    {
      "inputs": [],
      "stateMutability": "nonpayable",
      "type": "constructor"
    },
    {
      "anonymous": false,
      "inputs": [
        {
          "indexed": false,
          "internalType": "uint256",
          "name": "_amount",
          "type": "uint256"
        },
        {
          "indexed": false,
          "internalType": "address",
          "name": "doner",
          "type": "address"
        },
        {
          "indexed": false,
          "internalType": "uint256",
          "name": "timeStamp",
          "type": "uint256"
        }
      ],
      "name": "DonationEvent",
      "type": "event"
    },
    {
      "anonymous": false,
      "inputs": [
        {
          "indexed": false,
          "internalType": "uint256",
          "name": "amount",
          "type": "uint256"
        },
        {
          "indexed": false,
          "internalType": "uint256",
          "name": "timeStamp",
          "type": "uint256"
        },
        {
          "indexed": false,
          "internalType": "address",
          "name": "sender",
          "type": "address"
        },
        {
          "indexed": false,
          "internalType": "address",
          "name": "receipient",
          "type": "address"
        },
        {
          "indexed": false,
          "internalType": "string",
          "name": "description",
          "type": "string"
        }
      ],
      "name": "PaymentEvent",
      "type": "event"
    },
    {
      "anonymous": false,
      "inputs": [
        {
          "indexed": false,
          "internalType": "address",
          "name": "walletAddress",
          "type": "address"
        },
        {
          "indexed": false,
          "internalType": "uint256",
          "name": "currentWalletBalance",
          "type": "uint256"
        },
        {
          "indexed": false,
          "internalType": "uint256",
          "name": "numOfDonations",
          "type": "uint256"
        }
      ],
      "name": "WalletInfoEvent",
      "type": "event"
    },
    {
      "inputs": [],
      "name": "owner",
      "outputs": [
        {
          "internalType": "address",
          "name": "",
          "type": "address"
        }
      ],
      "stateMutability": "view",
      "type": "function"
    },
    {
      "inputs": [
        {
          "internalType": "address",
          "name": "",
          "type": "address"
        }
      ],
      "name": "payments",
      "outputs": [
        {
          "internalType": "uint256",
          "name": "amount",
          "type": "uint256"
        },
        {
          "internalType": "uint256",
          "name": "timeStamp",
          "type": "uint256"
        },
        {
          "internalType": "address",
          "name": "sender",
          "type": "address"
        },
        {
          "internalType": "address",
          "name": "receipient",
          "type": "address"
        },
        {
          "internalType": "string",
          "name": "description",
          "type": "string"
        }
      ],
      "stateMutability": "view",
      "type": "function"
    },
    {
      "inputs": [],
      "name": "totalBalance",
      "outputs": [
        {
          "internalType": "uint256",
          "name": "",
          "type": "uint256"
        }
      ],
      "stateMutability": "view",
      "type": "function"
    },
    {
      "inputs": [],
      "name": "totalNumberOfDonations",
      "outputs": [
        {
          "internalType": "uint256",
          "name": "",
          "type": "uint256"
        }
      ],
      "stateMutability": "view",
      "type": "function"
    },
    {
      "inputs": [
        {
          "internalType": "string",
          "name": "_string",
          "type": "string"
        }
      ],
      "name": "hash",
      "outputs": [
        {
          "internalType": "bytes32",
          "name": "",
          "type": "bytes32"
        }
      ],
      "stateMutability": "pure",
      "type": "function"
    },
    {
      "inputs": [],
      "name": "createWallet",
      "outputs": [],
      "stateMutability": "nonpayable",
      "type": "function"
    },
    {
      "inputs": [],
      "name": "getWallet",
      "outputs": [
        {
          "internalType": "address",
          "name": "walletAddress",
          "type": "address"
        },
        {
          "internalType": "uint256",
          "name": "walletBalance",
          "type": "uint256"
        },
        {
          "internalType": "uint256",
          "name": "numOfDonations",
          "type": "uint256"
        }
      ],
      "stateMutability": "nonpayable",
      "type": "function"
    },
    {
      "inputs": [
        {
          "internalType": "address",
          "name": "donationAddress",
          "type": "address"
        }
      ],
      "name": "donate",
      "outputs": [],
      "stateMutability": "payable",
      "type": "function"
    },
    {
      "inputs": [],
      "name": "getDonationBalance",
      "outputs": [
        {
          "internalType": "uint256",
          "name": "",
          "type": "uint256"
        }
      ],
      "stateMutability": "view",
      "type": "function"
    },
    {
      "inputs": [
        {
          "internalType": "address payable",
          "name": "_to",
          "type": "address"
        },
        {
          "internalType": "uint256",
          "name": "_amount",
          "type": "uint256"
        }
      ],
      "name": "withdrawFunds",
      "outputs": [],
      "stateMutability": "payable",
      "type": "function"
    }
  ],
  "bytecode": "0x608060405234801561001057600080fd5b50336000806101000a81548173ffffffffffffffffffffffffffffffffffffffff021916908373ffffffffffffffffffffffffffffffffffffffff160217905550611ad9806100606000396000f3fe6080604052600436106100905760003560e01c80638da5cb5b116100595780638da5cb5b1461014b578063ad7a672f14610176578063b411ee94146101a1578063c1075329146101de578063e2982c21146101fa57610090565b8062362a951461009557806311ebbf24146100b157806313299604146100c857806379cf134a146100f5578063864db27b14610120575b600080fd5b6100af60048036038101906100aa9190610fb5565b61023b565b005b3480156100bd57600080fd5b506100c661063e565b005b3480156100d457600080fd5b506100dd610825565b6040516100ec93929190611291565b60405180910390f35b34801561010157600080fd5b5061010a610959565b60405161011791906113a3565b60405180910390f35b34801561012c57600080fd5b5061013561095f565b60405161014291906113a3565b60405180910390f35b34801561015757600080fd5b50610160610967565b60405161016d919061123f565b60405180910390f35b34801561018257600080fd5b5061018b61098b565b60405161019891906113a3565b60405180910390f35b3480156101ad57600080fd5b506101c860048036038101906101c3919061101a565b610991565b6040516101d591906112c8565b60405180910390f35b6101f860048036038101906101f39190610fde565b6109c1565b005b34801561020657600080fd5b50610221600480360381019061021c9190610fb5565b610d6d565b60405161023295949392919061144d565b60405180910390f35b80600073ffffffffffffffffffffffffffffffffffffffff16600460008373ffffffffffffffffffffffffffffffffffffffff1673ffffffffffffffffffffffffffffffffffffffff16815260200190815260200160002060000160009054906101000a900473ffffffffffffffffffffffffffffffffffffffff1673ffffffffffffffffffffffffffffffffffffffff16141561030e576040517f08c379a000000000000000000000000000000000000000000000000000000000815260040161030590611383565b60405180910390fd5b60003411610351576040517f08c379a000000000000000000000000000000000000000000000000000000000815260040161034890611323565b60405180910390fd5b60003490508060016000828254610368919061157c565b925050819055506040518060a001604052808281526020014281526020013373ffffffffffffffffffffffffffffffffffffffff1681526020018473ffffffffffffffffffffffffffffffffffffffff1681526020016040518060400160405280600881526020017f646f6e6174696f6e000000000000000000000000000000000000000000000000815250815250600360003373ffffffffffffffffffffffffffffffffffffffff1673ffffffffffffffffffffffffffffffffffffffff168152602001908152602001600020600082015181600001556020820151816001015560408201518160020160006101000a81548173ffffffffffffffffffffffffffffffffffffffff021916908373ffffffffffffffffffffffffffffffffffffffff16021790555060608201518160030160006101000a81548173ffffffffffffffffffffffffffffffffffffffff021916908373ffffffffffffffffffffffffffffffffffffffff16021790555060808201518160040190805190602001906104f4929190610e6b565b509050506002600081548092919061050b9061174b565b919050555080600460008573ffffffffffffffffffffffffffffffffffffffff1673ffffffffffffffffffffffffffffffffffffffff1681526020019081526020016000206001016000828254610562919061157c565b92505081905550600460008473ffffffffffffffffffffffffffffffffffffffff1673ffffffffffffffffffffffffffffffffffffffff16815260200190815260200160002060020160008154809291906105bc9061174b565b91905055507fa228085e7275dcc4f28bf995f0505e0f611fe7023bef15856928c9233e3f6e028184426040516105f4939291906113be565b60405180910390a17f7071172028512c512f121c5b3869465631a658219bd44e20a9d7f1deaa33fb198142338660405161063194939291906114a7565b60405180910390a1505050565b333373ffffffffffffffffffffffffffffffffffffffff16600460008373ffffffffffffffffffffffffffffffffffffffff1673ffffffffffffffffffffffffffffffffffffffff16815260200190815260200160002060000160009054906101000a900473ffffffffffffffffffffffffffffffffffffffff1673ffffffffffffffffffffffffffffffffffffffff161415610710576040517f08c379a000000000000000000000000000000000000000000000000000000000815260040161070790611343565b60405180910390fd5b600060405180606001604052803373ffffffffffffffffffffffffffffffffffffffff168152602001600081526020016000815250905080600460003373ffffffffffffffffffffffffffffffffffffffff1673ffffffffffffffffffffffffffffffffffffffff16815260200190815260200160002060008201518160000160006101000a81548173ffffffffffffffffffffffffffffffffffffffff021916908373ffffffffffffffffffffffffffffffffffffffff16021790555060208201518160010155604082015181600201559050507ff0ea5988b6fd66466b34f41d75553f7cde5edfe2e3ca55566d54f2ab28da445c336000806040516108199392919061125a565b60405180910390a15050565b6000806000600460003373ffffffffffffffffffffffffffffffffffffffff1673ffffffffffffffffffffffffffffffffffffffff16815260200190815260200160002060000160009054906101000a900473ffffffffffffffffffffffffffffffffffffffff169250600460003373ffffffffffffffffffffffffffffffffffffffff1673ffffffffffffffffffffffffffffffffffffffff168152602001908152602001600020600101549150600460003373ffffffffffffffffffffffffffffffffffffffff1673ffffffffffffffffffffffffffffffffffffffff1681526020019081526020016000206002015490507ff0ea5988b6fd66466b34f41d75553f7cde5edfe2e3ca55566d54f2ab28da445c83838360405161094c93929190611291565b60405180910390a1909192565b60025481565b600047905090565b60008054906101000a900473ffffffffffffffffffffffffffffffffffffffff1681565b60015481565b6000816040516020016109a49190611228565b604051602081830303815290604052805190602001209050919050565b333373ffffffffffffffffffffffffffffffffffffffff16600460008373ffffffffffffffffffffffffffffffffffffffff1673ffffffffffffffffffffffffffffffffffffffff16815260200190815260200160002060000160009054906101000a900473ffffffffffffffffffffffffffffffffffffffff1673ffffffffffffffffffffffffffffffffffffffff1614610a92576040517f08c379a0000000000000000000000000000000000000000000000000000000008152600401610a89906112e3565b60405180910390fd5b82600073ffffffffffffffffffffffffffffffffffffffff16600460008373ffffffffffffffffffffffffffffffffffffffff1673ffffffffffffffffffffffffffffffffffffffff16815260200190815260200160002060000160009054906101000a900473ffffffffffffffffffffffffffffffffffffffff1673ffffffffffffffffffffffffffffffffffffffff161415610b65576040517f08c379a0000000000000000000000000000000000000000000000000000000008152600401610b5c90611383565b60405180910390fd5b836000600460008373ffffffffffffffffffffffffffffffffffffffff1673ffffffffffffffffffffffffffffffffffffffff1681526020019081526020016000206001015411610beb576040517f08c379a0000000000000000000000000000000000000000000000000000000008152600401610be290611303565b60405180910390fd5b83600460008773ffffffffffffffffffffffffffffffffffffffff1673ffffffffffffffffffffffffffffffffffffffff168152602001908152602001600020600101541015610c70576040517f08c379a0000000000000000000000000000000000000000000000000000000008152600401610c6790611363565b60405180910390fd5b83600460008773ffffffffffffffffffffffffffffffffffffffff1673ffffffffffffffffffffffffffffffffffffffff1681526020019081526020016000206001016000828254610cc291906115d2565b925050819055508360016000828254610cdb91906115d2565b925050819055508473ffffffffffffffffffffffffffffffffffffffff166108fc859081150290604051600060405180830381858888f19350505050158015610d28573d6000803e3d6000fd5b507f7071172028512c512f121c5b3869465631a658219bd44e20a9d7f1deaa33fb1984423388604051610d5e94939291906113f5565b60405180910390a15050505050565b60036020528060005260406000206000915090508060000154908060010154908060020160009054906101000a900473ffffffffffffffffffffffffffffffffffffffff16908060030160009054906101000a900473ffffffffffffffffffffffffffffffffffffffff1690806004018054610de8906116e8565b80601f0160208091040260200160405190810160405280929190818152602001828054610e14906116e8565b8015610e615780601f10610e3657610100808354040283529160200191610e61565b820191906000526020600020905b815481529060010190602001808311610e4457829003601f168201915b5050505050905085565b828054610e77906116e8565b90600052602060002090601f016020900481019282610e995760008555610ee0565b82601f10610eb257805160ff1916838001178555610ee0565b82800160010185558215610ee0579182015b82811115610edf578251825591602001919060010190610ec4565b5b509050610eed9190610ef1565b5090565b5b80821115610f0a576000816000905550600101610ef2565b5090565b6000610f21610f1c84611524565b6114ff565b905082815260208101848484011115610f3957600080fd5b610f448482856116a6565b509392505050565b600081359050610f5b81611a5e565b92915050565b600081359050610f7081611a75565b92915050565b600082601f830112610f8757600080fd5b8135610f97848260208601610f0e565b91505092915050565b600081359050610faf81611a8c565b92915050565b600060208284031215610fc757600080fd5b6000610fd584828501610f4c565b91505092915050565b60008060408385031215610ff157600080fd5b6000610fff85828601610f61565b925050602061101085828601610fa0565b9150509250929050565b60006020828403121561102c57600080fd5b600082013567ffffffffffffffff81111561104657600080fd5b61105284828501610f76565b91505092915050565b6110648161165e565b82525050565b61107381611606565b82525050565b6110828161162a565b82525050565b61109181611670565b82525050565b60006110a282611555565b6110ac8185611560565b93506110bc8185602086016116b5565b6110c581611821565b840191505092915050565b60006110db82611555565b6110e58185611571565b93506110f58185602086016116b5565b80840191505092915050565b600061110e602c83611560565b915061111982611832565b604082019050919050565b6000611131600883611560565b915061113c82611881565b602082019050919050565b6000611154602a83611560565b915061115f826118aa565b604082019050919050565b6000611177602983611560565b9150611182826118f9565b604082019050919050565b600061119a602f83611560565b91506111a582611948565b604082019050919050565b60006111bd600883611560565b91506111c882611997565b602082019050919050565b60006111e0603583611560565b91506111eb826119c0565b604082019050919050565b6000611203602f83611560565b915061120e82611a0f565b604082019050919050565b61122281611654565b82525050565b600061123482846110d0565b915081905092915050565b6000602082019050611254600083018461106a565b92915050565b600060608201905061126f600083018661106a565b61127c6020830185611088565b6112896040830184611088565b949350505050565b60006060820190506112a6600083018661106a565b6112b36020830185611219565b6112c06040830184611219565b949350505050565b60006020820190506112dd6000830184611079565b92915050565b600060208201905081810360008301526112fc81611101565b9050919050565b6000602082019050818103600083015261131c81611147565b9050919050565b6000602082019050818103600083015261133c8161116a565b9050919050565b6000602082019050818103600083015261135c8161118d565b9050919050565b6000602082019050818103600083015261137c816111d3565b9050919050565b6000602082019050818103600083015261139c816111f6565b9050919050565b60006020820190506113b86000830184611219565b92915050565b60006060820190506113d36000830186611219565b6113e0602083018561106a565b6113ed6040830184611219565b949350505050565b600060a08201905061140a6000830187611219565b6114176020830186611219565b611424604083018561106a565b611431606083018461105b565b8181036080830152611442816111b0565b905095945050505050565b600060a0820190506114626000830188611219565b61146f6020830187611219565b61147c604083018661106a565b611489606083018561106a565b818103608083015261149b8184611097565b90509695505050505050565b600060a0820190506114bc6000830187611219565b6114c96020830186611219565b6114d6604083018561106a565b6114e3606083018461106a565b81810360808301526114f481611124565b905095945050505050565b600061150961151a565b9050611515828261171a565b919050565b6000604051905090565b600067ffffffffffffffff82111561153f5761153e6117f2565b5b61154882611821565b9050602081019050919050565b600081519050919050565b600082825260208201905092915050565b600081905092915050565b600061158782611654565b915061159283611654565b9250827fffffffffffffffffffffffffffffffffffffffffffffffffffffffffffffffff038211156115c7576115c6611794565b5b828201905092915050565b60006115dd82611654565b91506115e883611654565b9250828210156115fb576115fa611794565b5b828203905092915050565b600061161182611634565b9050919050565b600061162382611634565b9050919050565b6000819050919050565b600073ffffffffffffffffffffffffffffffffffffffff82169050919050565b6000819050919050565b600061166982611682565b9050919050565b600061167b82611654565b9050919050565b600061168d82611694565b9050919050565b600061169f82611634565b9050919050565b82818337600083830152505050565b60005b838110156116d35780820151818401526020810190506116b8565b838111156116e2576000848401525b50505050565b6000600282049050600182168061170057607f821691505b60208210811415611714576117136117c3565b5b50919050565b61172382611821565b810181811067ffffffffffffffff82111715611742576117416117f2565b5b80604052505050565b600061175682611654565b91507fffffffffffffffffffffffffffffffffffffffffffffffffffffffffffffffff82141561178957611788611794565b5b600182019050919050565b7f4e487b7100000000000000000000000000000000000000000000000000000000600052601160045260246000fd5b7f4e487b7100000000000000000000000000000000000000000000000000000000600052602260045260246000fd5b7f4e487b7100000000000000000000000000000000000000000000000000000000600052604160045260246000fd5b6000601f19601f8301169050919050565b7f4f6e6c792057616c6c6574206f776e65722063616e20706572666f726d20746860008201527f69732061637469766974792e0000000000000000000000000000000000000000602082015250565b7f646f6e6174696f6e000000000000000000000000000000000000000000000000600082015250565b7f596f7520646f6e2774206861766520656e6f7567682062616c616e636520746f60008201527f2077697468647261772e00000000000000000000000000000000000000000000602082015250565b7f5472616e7366657220616d6f756e742068617320746f2062652067726561746560008201527f72207468616e20302e0000000000000000000000000000000000000000000000602082015250565b7f412077616c6c657420697320616c7265616479206173736f636961746564207460008201527f6f207468697320616464726573732e0000000000000000000000000000000000602082015250565b7f7769746864726177000000000000000000000000000000000000000000000000600082015250565b7f596f752063616e2774207769746864726177206d6f7265207468616e20796f7560008201527f206861766520696e20796f75722077616c6c6574210000000000000000000000602082015250565b7f596f75722061646472657373206973206e6f742072656769737465726564206f60008201527f6e2043727970746f4b6f666665652e0000000000000000000000000000000000602082015250565b611a6781611606565b8114611a7257600080fd5b50565b611a7e81611618565b8114611a8957600080fd5b50565b611a9581611654565b8114611aa057600080fd5b5056fea26469706673582212201fa5173f2257dc91c9b475b1fc46bafbc9f58f30a8c86132a2c5d8d2eda9bc5664736f6c63430008040033",
  "immutableReferences": {},
  "source": "// SPDX-License-Identifier: MIT\npragma solidity ^0.8.4.0;\n\ncontract CryptoKoffee {\n    address public owner;\n    uint public totalBalance;\n    uint public totalNumberOfDonations;\n\n    struct Payment{\n        uint amount;\n        uint timeStamp;\n        address sender;\n        address receipient;\n        string description;\n    }\n\n    struct WalletInfo{\n      \n        address walletAddress;\n        uint currentBalance;\n        uint numOfDonations;\n    }\n\n    // Track Payments\n    mapping(address => Payment) public payments;\n    // mapping(address => Balance) public balanceReceived;\n    mapping(address => WalletInfo) private walletMapping;\n\n    // Emit events \n    event DonationEvent(uint _amount, address doner, uint timeStamp);\n    event WalletInfoEvent(address walletAddress, uint currentWalletBalance, uint numOfDonations);\n    event PaymentEvent(uint amount, uint timeStamp,address sender, address receipient, string description);\n    \n    constructor(){\n        owner = msg.sender;\n    }\n\n    modifier onlyOwner(){\n        require(msg.sender == owner, \"You are not the owner\");\n        _;\n    }\n    \n    // Validates that the amount to transfer is not zero.\n    modifier validateTransferAmount() {\n        require(msg.value > 0, \"Transfer amount has to be greater than 0.\");\n        _;\n    }\n\n    modifier validateWalletOwner(address ownerAddress) {\n        require(walletMapping[ownerAddress].walletAddress == msg.sender, \"Only Wallet owner can perform this activity.\");\n        _;\n    }\n\n    // Validates that the amount to transfer is not zero.\n    modifier validateReciepientAddress(address receipientAddress) {\n        require(walletMapping[receipientAddress].walletAddress != 0x0000000000000000000000000000000000000000, \"Your address is not registered on CryptoKoffee.\");\n        _;\n    }\n\n    modifier validateIfWalletExists(address senderAddress) {\n        require(walletMapping[senderAddress].walletAddress != msg.sender, \"A wallet is already associated to this address.\");\n        _;\n    }\n\n    modifier validateReciepientBalance(address receipientAddress) {\n        require(walletMapping[receipientAddress].currentBalance > 0, \"You don't have enough balance to withdraw.\");\n        _;\n    }\n\n    function hash(string memory _string) public pure returns(bytes32) {\n     return keccak256(abi.encodePacked(_string));\n    }\n\n    /** Create wallet \n        Needs the connected wallet address 9900826\n        **remember to hash the _name and _link before sending to chain 8929eth\n    **/\n\n    /** Donate function\n     [ Needs a wallet to make the donations to. ] \n     check if donation address has wallet associated with it.\n    **/\n    function createWallet() public validateIfWalletExists(msg.sender)  {\n      \n       WalletInfo memory _wallet = WalletInfo( msg.sender, 0, 0);\n        walletMapping[msg.sender] = _wallet;\n        emit WalletInfoEvent(msg.sender, 0, 0);\n    }\n    \n    function getWallet() public returns(address walletAddress, \n        uint walletBalance, uint numOfDonations) {\n        \n        walletAddress = walletMapping[msg.sender].walletAddress;\n        walletBalance = walletMapping[msg.sender].currentBalance;\n        numOfDonations = walletMapping[msg.sender].numOfDonations;\n        // Emit events after getting wallet info data\n        emit WalletInfoEvent(walletAddress, walletBalance, numOfDonations);\n        return (walletAddress, walletBalance, numOfDonations);\n    }\n\n    /** Donate function\n     [ Needs a wallet to make the donations to. ] \n     check if donation address has wallet associated with it.\n    **/\n    function donate(address donationAddress ) public payable validateReciepientAddress(donationAddress) validateTransferAmount  {\n        uint _amount = msg.value;\n        totalBalance += _amount;\n        payments[msg.sender] =  Payment({amount: _amount, timeStamp: block.timestamp, sender: msg.sender, receipient: donationAddress, description: \"donation\"});\n        totalNumberOfDonations++;\n        walletMapping[donationAddress].currentBalance += _amount;\n        walletMapping[donationAddress].numOfDonations++;\n        emit DonationEvent(_amount, donationAddress, block.timestamp);\n        emit PaymentEvent(_amount, block.timestamp, msg.sender, donationAddress, \"donation\");\n    }\n\n    // Get donation balance from contract\n    function getDonationBalance() public view returns(uint){\n        return address(this).balance;\n    }\n\n    // Release funds from contract to project \n    function withdrawFunds(address payable _to, uint _amount)  public payable\n    validateWalletOwner(msg.sender) validateReciepientAddress(_to) \n    validateReciepientBalance(_to)\n    \n     {\n        require(walletMapping[_to].currentBalance >= _amount, \"You can't withdraw more than you have in your wallet!\");\n        walletMapping[_to].currentBalance -= _amount;\n        totalBalance -= _amount;                                                                                                                                                                                                                                                                                                                                                                                                                                                                                                                                                                                                                                                              \n        _to.transfer(_amount);\n        emit PaymentEvent(_amount, block.timestamp, msg.sender, _to, \"withdraw\");\n    }\n}\n\n",
  "sourcePath": "/Users/kenmartey/Documents/dev_things/blockchain/cryptokoffee/CryptoKoffee/contracts/CryptoKoffee.sol",
  "compiler": {
    "name": "solc",
    "version": "0.8.4+commit.c7e474f2.Emscripten.clang"
  },
  "schemaVersion": "3.4.8",
  "updatedAt": "2022-09-06T14:21:22.562Z",
  "devdoc": {
    "kind": "dev",
    "methods": {},
    "version": 1
  },
  "userdoc": {
    "kind": "user",
    "methods": {
      "createWallet()": {
        "notice": "Donate function [ Needs a wallet to make the donations to. ]  check if donation address has wallet associated with it.*"
      },
      "donate(address)": {
        "notice": "Donate function [ Needs a wallet to make the donations to. ]  check if donation address has wallet associated with it.*"
      }
    },
    "version": 1
  }
}