{
  "contractName": "CryptoKoffee",
  "abi": [
    {
      "inputs": [],
      "stateMutability": "nonpayable",
      "type": "constructor"
    },
    {
      "anonymous": false,
      "inputs": [
        {
          "indexed": false,
          "internalType": "uint256",
          "name": "_amount",
          "type": "uint256"
        },
        {
          "indexed": false,
          "internalType": "address",
          "name": "doner",
          "type": "address"
        },
        {
          "indexed": false,
          "internalType": "uint256",
          "name": "timeStamp",
          "type": "uint256"
        }
      ],
      "name": "DonationEvent",
      "type": "event"
    },
    {
      "anonymous": false,
      "inputs": [
        {
          "indexed": false,
          "internalType": "uint256",
          "name": "amount",
          "type": "uint256"
        },
        {
          "indexed": false,
          "internalType": "uint256",
          "name": "timeStamp",
          "type": "uint256"
        },
        {
          "indexed": false,
          "internalType": "address",
          "name": "sender",
          "type": "address"
        },
        {
          "indexed": false,
          "internalType": "address",
          "name": "receipient",
          "type": "address"
        },
        {
          "indexed": false,
          "internalType": "string",
          "name": "description",
          "type": "string"
        }
      ],
      "name": "PaymentEvent",
      "type": "event"
    },
    {
      "anonymous": false,
      "inputs": [
        {
          "indexed": false,
          "internalType": "bytes32",
          "name": "name",
          "type": "bytes32"
        },
        {
          "indexed": false,
          "internalType": "bytes32",
          "name": "link",
          "type": "bytes32"
        },
        {
          "indexed": false,
          "internalType": "address",
          "name": "walletAddress",
          "type": "address"
        },
        {
          "indexed": false,
          "internalType": "uint256",
          "name": "currentWalletBalance",
          "type": "uint256"
        },
        {
          "indexed": false,
          "internalType": "uint256",
          "name": "numOfDonations",
          "type": "uint256"
        }
      ],
      "name": "WalletInfoEvent",
      "type": "event"
    },
    {
      "inputs": [],
      "name": "owner",
      "outputs": [
        {
          "internalType": "address",
          "name": "",
          "type": "address"
        }
      ],
      "stateMutability": "view",
      "type": "function"
    },
    {
      "inputs": [
        {
          "internalType": "address",
          "name": "",
          "type": "address"
        }
      ],
      "name": "payments",
      "outputs": [
        {
          "internalType": "uint256",
          "name": "amount",
          "type": "uint256"
        },
        {
          "internalType": "uint256",
          "name": "timeStamp",
          "type": "uint256"
        },
        {
          "internalType": "address",
          "name": "sender",
          "type": "address"
        },
        {
          "internalType": "address",
          "name": "receipient",
          "type": "address"
        },
        {
          "internalType": "string",
          "name": "description",
          "type": "string"
        }
      ],
      "stateMutability": "view",
      "type": "function"
    },
    {
      "inputs": [],
      "name": "totalBalance",
      "outputs": [
        {
          "internalType": "uint256",
          "name": "",
          "type": "uint256"
        }
      ],
      "stateMutability": "view",
      "type": "function"
    },
    {
      "inputs": [],
      "name": "totalNumberOfDonations",
      "outputs": [
        {
          "internalType": "uint256",
          "name": "",
          "type": "uint256"
        }
      ],
      "stateMutability": "view",
      "type": "function"
    },
    {
      "inputs": [
        {
          "internalType": "string",
          "name": "_string",
          "type": "string"
        }
      ],
      "name": "hash",
      "outputs": [
        {
          "internalType": "bytes32",
          "name": "",
          "type": "bytes32"
        }
      ],
      "stateMutability": "pure",
      "type": "function"
    },
    {
      "inputs": [
        {
          "internalType": "string",
          "name": "_name",
          "type": "string"
        },
        {
          "internalType": "string",
          "name": "_link",
          "type": "string"
        }
      ],
      "name": "createWallet",
      "outputs": [],
      "stateMutability": "nonpayable",
      "type": "function"
    },
    {
      "inputs": [],
      "name": "getWallet",
      "outputs": [
        {
          "internalType": "bytes32",
          "name": "name",
          "type": "bytes32"
        },
        {
          "internalType": "bytes32",
          "name": "link",
          "type": "bytes32"
        },
        {
          "internalType": "address",
          "name": "walletAddress",
          "type": "address"
        },
        {
          "internalType": "uint256",
          "name": "walletBalance",
          "type": "uint256"
        },
        {
          "internalType": "uint256",
          "name": "numOfDonations",
          "type": "uint256"
        }
      ],
      "stateMutability": "nonpayable",
      "type": "function"
    },
    {
      "inputs": [
        {
          "internalType": "address",
          "name": "donationAddress",
          "type": "address"
        }
      ],
      "name": "donate",
      "outputs": [],
      "stateMutability": "payable",
      "type": "function"
    },
    {
      "inputs": [],
      "name": "getDonationBalance",
      "outputs": [
        {
          "internalType": "uint256",
          "name": "",
          "type": "uint256"
        }
      ],
      "stateMutability": "view",
      "type": "function"
    },
    {
      "inputs": [
        {
          "internalType": "address payable",
          "name": "_to",
          "type": "address"
        },
        {
          "internalType": "uint256",
          "name": "_amount",
          "type": "uint256"
        }
      ],
      "name": "releaseFunds",
      "outputs": [],
      "stateMutability": "payable",
      "type": "function"
    }
  ],
  "bytecode": "0x608060405234801561001057600080fd5b50336000806101000a81548173ffffffffffffffffffffffffffffffffffffffff021916908373ffffffffffffffffffffffffffffffffffffffff160217905550611a34806100606000396000f3fe6080604052600436106100905760003560e01c80638da5cb5b116100595780638da5cb5b1461015f578063ad7a672f1461018a578063b411ee94146101b5578063d6e982e5146101f2578063e2982c211461020e57610090565b8062362a951461009557806313299604146100b157806379cf134a146100e0578063812770791461010b578063864db27b14610134575b600080fd5b6100af60048036038101906100aa9190610f90565b61024f565b005b3480156100bd57600080fd5b506100c6610617565b6040516100d79594939291906112c9565b60405180910390f35b3480156100ec57600080fd5b506100f56107de565b604051610102919061139c565b60405180910390f35b34801561011757600080fd5b50610132600480360381019061012d9190611036565b6107e4565b005b34801561014057600080fd5b5061014961093a565b604051610156919061139c565b60405180910390f35b34801561016b57600080fd5b50610174610942565b6040516101819190611240565b60405180910390f35b34801561019657600080fd5b5061019f610966565b6040516101ac919061139c565b60405180910390f35b3480156101c157600080fd5b506101dc60048036038101906101d79190610ff5565b61096c565b6040516101e9919061125b565b60405180910390f35b61020c60048036038101906102079190610fb9565b61099c565b005b34801561021a57600080fd5b5061023560048036038101906102309190610f90565b610d48565b604051610246959493929190611446565b60405180910390f35b80600073ffffffffffffffffffffffffffffffffffffffff16600460008373ffffffffffffffffffffffffffffffffffffffff1673ffffffffffffffffffffffffffffffffffffffff16815260200190815260200160002060020160009054906101000a900473ffffffffffffffffffffffffffffffffffffffff1673ffffffffffffffffffffffffffffffffffffffff161415610322576040517f08c379a00000000000000000000000000000000000000000000000000000000081526004016103199061137c565b60405180910390fd5b600034905080600160008282546103399190611575565b9250508190555060006040518060a001604052808381526020014281526020013373ffffffffffffffffffffffffffffffffffffffff1681526020018573ffffffffffffffffffffffffffffffffffffffff1681526020016040518060400160405280600881526020017f646f6e6174696f6e000000000000000000000000000000000000000000000000815250815250905080600360003373ffffffffffffffffffffffffffffffffffffffff1673ffffffffffffffffffffffffffffffffffffffff168152602001908152602001600020600082015181600001556020820151816001015560408201518160020160006101000a81548173ffffffffffffffffffffffffffffffffffffffff021916908373ffffffffffffffffffffffffffffffffffffffff16021790555060608201518160030160006101000a81548173ffffffffffffffffffffffffffffffffffffffff021916908373ffffffffffffffffffffffffffffffffffffffff16021790555060808201518160040190805190602001906104ca929190610e46565b50905050600260008154809291906104e190611744565b919050555081600460008673ffffffffffffffffffffffffffffffffffffffff1673ffffffffffffffffffffffffffffffffffffffff16815260200190815260200160002060030160008282546105389190611575565b925050819055506001600460008673ffffffffffffffffffffffffffffffffffffffff1673ffffffffffffffffffffffffffffffffffffffff16815260200190815260200160002060040160008282546105929190611575565b925050819055507fa228085e7275dcc4f28bf995f0505e0f611fe7023bef15856928c9233e3f6e028285426040516105cc939291906113b7565b60405180910390a17f7071172028512c512f121c5b3869465631a658219bd44e20a9d7f1deaa33fb198242338760405161060994939291906114a0565b60405180910390a150505050565b6000806000806000600460003373ffffffffffffffffffffffffffffffffffffffff1673ffffffffffffffffffffffffffffffffffffffff168152602001908152602001600020600001549450600460003373ffffffffffffffffffffffffffffffffffffffff1673ffffffffffffffffffffffffffffffffffffffff168152602001908152602001600020600101549350600460003373ffffffffffffffffffffffffffffffffffffffff1673ffffffffffffffffffffffffffffffffffffffff16815260200190815260200160002060020160009054906101000a900473ffffffffffffffffffffffffffffffffffffffff169250600460003373ffffffffffffffffffffffffffffffffffffffff1673ffffffffffffffffffffffffffffffffffffffff168152602001908152602001600020600301549150600460003373ffffffffffffffffffffffffffffffffffffffff1673ffffffffffffffffffffffffffffffffffffffff1681526020019081526020016000206004015490507f4b0f6b674b63d3584fdf01c0b867752fc6b1bacd2cd54cf1ebb0f1f7f2d0a49085858585856040516107cf9594939291906112c9565b60405180910390a19091929394565b60025481565b60006107ef8361096c565b905060006107fc8361096c565b905060006040518060a001604052808481526020018381526020013373ffffffffffffffffffffffffffffffffffffffff168152602001600081526020016000815250905080600460003373ffffffffffffffffffffffffffffffffffffffff1673ffffffffffffffffffffffffffffffffffffffff168152602001908152602001600020600082015181600001556020820151816001015560408201518160020160006101000a81548173ffffffffffffffffffffffffffffffffffffffff021916908373ffffffffffffffffffffffffffffffffffffffff16021790555060608201518160030155608082015181600401559050507f4b0f6b674b63d3584fdf01c0b867752fc6b1bacd2cd54cf1ebb0f1f7f2d0a49083833360008060405161092b959493929190611276565b60405180910390a15050505050565b600047905090565b60008054906101000a900473ffffffffffffffffffffffffffffffffffffffff1681565b60015481565b60008160405160200161097f9190611229565b604051602081830303815290604052805190602001209050919050565b333373ffffffffffffffffffffffffffffffffffffffff16600460008373ffffffffffffffffffffffffffffffffffffffff1673ffffffffffffffffffffffffffffffffffffffff16815260200190815260200160002060020160009054906101000a900473ffffffffffffffffffffffffffffffffffffffff1673ffffffffffffffffffffffffffffffffffffffff1614610a6d576040517f08c379a0000000000000000000000000000000000000000000000000000000008152600401610a649061131c565b60405180910390fd5b82600073ffffffffffffffffffffffffffffffffffffffff16600460008373ffffffffffffffffffffffffffffffffffffffff1673ffffffffffffffffffffffffffffffffffffffff16815260200190815260200160002060020160009054906101000a900473ffffffffffffffffffffffffffffffffffffffff1673ffffffffffffffffffffffffffffffffffffffff161415610b40576040517f08c379a0000000000000000000000000000000000000000000000000000000008152600401610b379061137c565b60405180910390fd5b836000600460008373ffffffffffffffffffffffffffffffffffffffff1673ffffffffffffffffffffffffffffffffffffffff1681526020019081526020016000206003015411610bc6576040517f08c379a0000000000000000000000000000000000000000000000000000000008152600401610bbd9061133c565b60405180910390fd5b83600460008773ffffffffffffffffffffffffffffffffffffffff1673ffffffffffffffffffffffffffffffffffffffff168152602001908152602001600020600301541015610c4b576040517f08c379a0000000000000000000000000000000000000000000000000000000008152600401610c429061135c565b60405180910390fd5b83600460008773ffffffffffffffffffffffffffffffffffffffff1673ffffffffffffffffffffffffffffffffffffffff1681526020019081526020016000206003016000828254610c9d91906115cb565b925050819055508360016000828254610cb691906115cb565b925050819055508473ffffffffffffffffffffffffffffffffffffffff166108fc859081150290604051600060405180830381858888f19350505050158015610d03573d6000803e3d6000fd5b507f7071172028512c512f121c5b3869465631a658219bd44e20a9d7f1deaa33fb1984423388604051610d3994939291906113ee565b60405180910390a15050505050565b60036020528060005260406000206000915090508060000154908060010154908060020160009054906101000a900473ffffffffffffffffffffffffffffffffffffffff16908060030160009054906101000a900473ffffffffffffffffffffffffffffffffffffffff1690806004018054610dc3906116e1565b80601f0160208091040260200160405190810160405280929190818152602001828054610def906116e1565b8015610e3c5780601f10610e1157610100808354040283529160200191610e3c565b820191906000526020600020905b815481529060010190602001808311610e1f57829003601f168201915b5050505050905085565b828054610e52906116e1565b90600052602060002090601f016020900481019282610e745760008555610ebb565b82601f10610e8d57805160ff1916838001178555610ebb565b82800160010185558215610ebb579182015b82811115610eba578251825591602001919060010190610e9f565b5b509050610ec89190610ecc565b5090565b5b80821115610ee5576000816000905550600101610ecd565b5090565b6000610efc610ef78461151d565b6114f8565b905082815260208101848484011115610f1457600080fd5b610f1f84828561169f565b509392505050565b600081359050610f36816119b9565b92915050565b600081359050610f4b816119d0565b92915050565b600082601f830112610f6257600080fd5b8135610f72848260208601610ee9565b91505092915050565b600081359050610f8a816119e7565b92915050565b600060208284031215610fa257600080fd5b6000610fb084828501610f27565b91505092915050565b60008060408385031215610fcc57600080fd5b6000610fda85828601610f3c565b9250506020610feb85828601610f7b565b9150509250929050565b60006020828403121561100757600080fd5b600082013567ffffffffffffffff81111561102157600080fd5b61102d84828501610f51565b91505092915050565b6000806040838503121561104957600080fd5b600083013567ffffffffffffffff81111561106357600080fd5b61106f85828601610f51565b925050602083013567ffffffffffffffff81111561108c57600080fd5b61109885828601610f51565b9150509250929050565b6110ab81611657565b82525050565b6110ba816115ff565b82525050565b6110c981611623565b82525050565b6110d881611669565b82525050565b60006110e98261154e565b6110f38185611559565b93506111038185602086016116ae565b61110c8161181a565b840191505092915050565b60006111228261154e565b61112c818561156a565b935061113c8185602086016116ae565b80840191505092915050565b6000611155602c83611559565b91506111608261182b565b604082019050919050565b6000611178600883611559565b91506111838261187a565b602082019050919050565b600061119b602a83611559565b91506111a6826118a3565b604082019050919050565b60006111be600883611559565b91506111c9826118f2565b602082019050919050565b60006111e1603583611559565b91506111ec8261191b565b604082019050919050565b6000611204602f83611559565b915061120f8261196a565b604082019050919050565b6112238161164d565b82525050565b60006112358284611117565b915081905092915050565b600060208201905061125560008301846110b1565b92915050565b600060208201905061127060008301846110c0565b92915050565b600060a08201905061128b60008301886110c0565b61129860208301876110c0565b6112a560408301866110b1565b6112b260608301856110cf565b6112bf60808301846110cf565b9695505050505050565b600060a0820190506112de60008301886110c0565b6112eb60208301876110c0565b6112f860408301866110b1565b611305606083018561121a565b611312608083018461121a565b9695505050505050565b6000602082019050818103600083015261133581611148565b9050919050565b600060208201905081810360008301526113558161118e565b9050919050565b60006020820190508181036000830152611375816111d4565b9050919050565b60006020820190508181036000830152611395816111f7565b9050919050565b60006020820190506113b1600083018461121a565b92915050565b60006060820190506113cc600083018661121a565b6113d960208301856110b1565b6113e6604083018461121a565b949350505050565b600060a082019050611403600083018761121a565b611410602083018661121a565b61141d60408301856110b1565b61142a60608301846110a2565b818103608083015261143b816111b1565b905095945050505050565b600060a08201905061145b600083018861121a565b611468602083018761121a565b61147560408301866110b1565b61148260608301856110b1565b818103608083015261149481846110de565b90509695505050505050565b600060a0820190506114b5600083018761121a565b6114c2602083018661121a565b6114cf60408301856110b1565b6114dc60608301846110b1565b81810360808301526114ed8161116b565b905095945050505050565b6000611502611513565b905061150e8282611713565b919050565b6000604051905090565b600067ffffffffffffffff821115611538576115376117eb565b5b6115418261181a565b9050602081019050919050565b600081519050919050565b600082825260208201905092915050565b600081905092915050565b60006115808261164d565b915061158b8361164d565b9250827fffffffffffffffffffffffffffffffffffffffffffffffffffffffffffffffff038211156115c0576115bf61178d565b5b828201905092915050565b60006115d68261164d565b91506115e18361164d565b9250828210156115f4576115f361178d565b5b828203905092915050565b600061160a8261162d565b9050919050565b600061161c8261162d565b9050919050565b6000819050919050565b600073ffffffffffffffffffffffffffffffffffffffff82169050919050565b6000819050919050565b60006116628261167b565b9050919050565b60006116748261164d565b9050919050565b60006116868261168d565b9050919050565b60006116988261162d565b9050919050565b82818337600083830152505050565b60005b838110156116cc5780820151818401526020810190506116b1565b838111156116db576000848401525b50505050565b600060028204905060018216806116f957607f821691505b6020821081141561170d5761170c6117bc565b5b50919050565b61171c8261181a565b810181811067ffffffffffffffff8211171561173b5761173a6117eb565b5b80604052505050565b600061174f8261164d565b91507fffffffffffffffffffffffffffffffffffffffffffffffffffffffffffffffff8214156117825761178161178d565b5b600182019050919050565b7f4e487b7100000000000000000000000000000000000000000000000000000000600052601160045260246000fd5b7f4e487b7100000000000000000000000000000000000000000000000000000000600052602260045260246000fd5b7f4e487b7100000000000000000000000000000000000000000000000000000000600052604160045260246000fd5b6000601f19601f8301169050919050565b7f4f6e6c792057616c6c6574206f776e65722063616e20706572666f726d20746860008201527f69732061637469766974792e0000000000000000000000000000000000000000602082015250565b7f646f6e6174696f6e000000000000000000000000000000000000000000000000600082015250565b7f596f7520646f6e2774206861766520656e6f7567682062616c616e636520746f60008201527f2077697468647261772e00000000000000000000000000000000000000000000602082015250565b7f7769746864726177000000000000000000000000000000000000000000000000600082015250565b7f596f752063616e2774207769746864726177206d6f7265207468616e20796f7560008201527f206861766520696e20796f75722077616c6c6574210000000000000000000000602082015250565b7f596f75722061646472657373206973206e6f742072656769737465726564206f60008201527f6e2043727970746f4b6f666665652e0000000000000000000000000000000000602082015250565b6119c2816115ff565b81146119cd57600080fd5b50565b6119d981611611565b81146119e457600080fd5b50565b6119f08161164d565b81146119fb57600080fd5b5056fea2646970667358221220dc95ef7d70bc357a921e271af97758480fd30835edfb651ea039c267bbc4291864736f6c63430008040033",
  "immutableReferences": {},
  "source": "// SPDX-License-Identifier: MIT\npragma solidity ^0.8.4.0;\n\ncontract CryptoKoffee {\n    address public owner;\n    uint public totalBalance;\n    uint public totalNumberOfDonations;\n\n    struct Payment{\n        uint amount;\n        uint timeStamp;\n        address sender;\n        address receipient;\n        string description;\n    }\n\n    struct WalletInfo{\n        bytes32 name;\n        bytes32 link;\n        address walletAddress;\n        uint currentBalance;\n        uint numOfDonations;\n    }\n\n    // Track Payments\n    mapping(address => Payment) public payments;\n    // mapping(address => Balance) public balanceReceived;\n    mapping(address => WalletInfo) private walletMapping;\n\n    // Emit events \n    event DonationEvent(uint _amount, address doner, uint timeStamp);\n    event WalletInfoEvent(bytes32  name, bytes32  link, address walletAddress, uint currentWalletBalance, uint numOfDonations);\n    event PaymentEvent(uint amount, uint timeStamp,address sender, address receipient, string description);\n    \n    constructor(){\n        owner = msg.sender;\n    }\n\n    modifier onlyOwner(){\n        require(msg.sender == owner, \"You are not the owner\");\n        _;\n    }\n    \n    // Validates that the amount to transfer is not zero.\n    modifier validateTransferAmount() {\n        require(msg.value > 0, \"Transfer amount has to be greater than 0.\");\n        _;\n    }\n\n    modifier validateWalletOwner(address ownerAddress) {\n        require(walletMapping[ownerAddress].walletAddress == msg.sender, \"Only Wallet owner can perform this activity.\");\n        _;\n    }\n\n    // Validates that the amount to transfer is not zero.\n    modifier validateReciepientAddress(address receipientAddress) {\n        require(walletMapping[receipientAddress].walletAddress != 0x0000000000000000000000000000000000000000, \"Your address is not registered on CryptoKoffee.\");\n        _;\n    }\n    modifier validateReciepientBalance(address receipientAddress) {\n        require(walletMapping[receipientAddress].currentBalance > 0, \"You don't have enough balance to withdraw.\");\n        _;\n    }\n    function hash(string memory _string) public pure returns(bytes32) {\n     return keccak256(abi.encodePacked(_string));\n    }\n\n    /** Create wallet \n        Needs the connected wallet address 9900826\n        **remember to hash the _name and _link before sending to chain 8929eth\n    **/\n    function createWallet(string memory _name, string memory _link) public {\n        bytes32 hashName = hash(_name);\n        bytes32 hashLink = hash(_link);\n        WalletInfo memory _wallet = WalletInfo(hashName, hashLink, msg.sender, 0, 0);\n        walletMapping[msg.sender] = _wallet;\n        emit WalletInfoEvent(hashName, hashLink, msg.sender, 0, 0);\n    }\n    \n    function getWallet() public returns(bytes32 name, bytes32 link, address walletAddress, uint walletBalance, uint numOfDonations) {\n        name = walletMapping[msg.sender].name;\n        link = walletMapping[msg.sender].link;\n        walletAddress = walletMapping[msg.sender].walletAddress;\n        walletBalance = walletMapping[msg.sender].currentBalance;\n        numOfDonations = walletMapping[msg.sender].numOfDonations;\n        // Emit events after getting wallet info data\n        emit WalletInfoEvent(name, link, walletAddress, walletBalance, numOfDonations);\n        return (name, link, walletAddress, walletBalance, numOfDonations);\n    }\n\n    /** Donate function\n     [ Needs a wallet to make the donations to. ] \n     check if donation address has wallet associated with it.\n    **/\n    function donate(address donationAddress ) public payable validateReciepientAddress(donationAddress)  {\n        uint _amount = msg.value;\n        totalBalance += _amount;\n        Payment memory payment = Payment(_amount, block.timestamp, msg.sender, donationAddress, \"donation\");\n        payments[msg.sender] = payment;\n        totalNumberOfDonations++;\n        walletMapping[donationAddress].currentBalance += _amount;\n        walletMapping[donationAddress].numOfDonations += 1;\n        emit DonationEvent(_amount, donationAddress, block.timestamp);\n        emit PaymentEvent(_amount, block.timestamp, msg.sender, donationAddress, \"donation\");\n    }\n\n    // Get donation balance from contract\n    function getDonationBalance() public view returns(uint){\n        return address(this).balance;\n    }\n\n    // Release funds from contract to project \n    function releaseFunds(address payable _to, uint _amount) \n    validateWalletOwner(msg.sender) validateReciepientAddress(_to) \n    validateReciepientBalance(_to) \n    public payable {\n        require(walletMapping[_to].currentBalance >= _amount, \"You can't withdraw more than you have in your wallet!\");\n        walletMapping[_to].currentBalance -= _amount;\n        totalBalance -= _amount;                                                                                                                                                                                                                                                                                                                                                                                                                                                                                                                                                                                                                                                              \n        _to.transfer(_amount);\n        emit PaymentEvent(_amount, block.timestamp, msg.sender, _to, \"withdraw\");\n    }\n}\n",
  "sourcePath": "/Users/kenmartey/Documents/dev_things/blockchain/cryptokoffee/CryptoKoffee/contracts/CryptoKoffee.sol",
  "compiler": {
    "name": "solc",
    "version": "0.8.4+commit.c7e474f2.Emscripten.clang"
  },
  "schemaVersion": "3.4.4",
  "updatedAt": "2022-07-17T04:12:07.216Z",
  "devdoc": {
    "kind": "dev",
    "methods": {},
    "version": 1
  },
  "userdoc": {
    "kind": "user",
    "methods": {
      "createWallet(string,string)": {
        "notice": "Create wallet  Needs the connected wallet address 9900826**remember to hash the _name and _link before sending to chain 8929eth*"
      },
      "donate(address)": {
        "notice": "Donate function [ Needs a wallet to make the donations to. ]  check if donation address has wallet associated with it.*"
      }
    },
    "version": 1
  }
}