{
  "contractName": "CryptoKoffee",
  "abi": [
    {
      "inputs": [],
      "stateMutability": "nonpayable",
      "type": "constructor"
    },
    {
      "anonymous": false,
      "inputs": [
        {
          "indexed": false,
          "internalType": "uint256",
          "name": "_amount",
          "type": "uint256"
        },
        {
          "indexed": false,
          "internalType": "address",
          "name": "doner",
          "type": "address"
        },
        {
          "indexed": false,
          "internalType": "uint256",
          "name": "timeStamp",
          "type": "uint256"
        }
      ],
      "name": "DonationEvent",
      "type": "event"
    },
    {
      "anonymous": false,
      "inputs": [
        {
          "indexed": false,
          "internalType": "string",
          "name": "name",
          "type": "string"
        },
        {
          "indexed": false,
          "internalType": "string",
          "name": "link",
          "type": "string"
        },
        {
          "indexed": false,
          "internalType": "address",
          "name": "walletAddress",
          "type": "address"
        }
      ],
      "name": "WalletInfoEvent",
      "type": "event"
    },
    {
      "inputs": [
        {
          "internalType": "address",
          "name": "",
          "type": "address"
        }
      ],
      "name": "balanceReceived",
      "outputs": [
        {
          "internalType": "uint256",
          "name": "totalBalance",
          "type": "uint256"
        },
        {
          "internalType": "uint256",
          "name": "numPayments",
          "type": "uint256"
        }
      ],
      "stateMutability": "view",
      "type": "function",
      "constant": true
    },
    {
      "inputs": [
        {
          "internalType": "address",
          "name": "",
          "type": "address"
        }
      ],
      "name": "donations",
      "outputs": [
        {
          "internalType": "uint256",
          "name": "amount",
          "type": "uint256"
        },
        {
          "internalType": "uint256",
          "name": "timeStamp",
          "type": "uint256"
        }
      ],
      "stateMutability": "view",
      "type": "function",
      "constant": true
    },
    {
      "inputs": [],
      "name": "owner",
      "outputs": [
        {
          "internalType": "address",
          "name": "",
          "type": "address"
        }
      ],
      "stateMutability": "view",
      "type": "function",
      "constant": true
    },
    {
      "inputs": [
        {
          "internalType": "address",
          "name": "",
          "type": "address"
        }
      ],
      "name": "walletMapping",
      "outputs": [
        {
          "internalType": "string",
          "name": "name",
          "type": "string"
        },
        {
          "internalType": "string",
          "name": "link",
          "type": "string"
        },
        {
          "internalType": "address",
          "name": "walletAddress",
          "type": "address"
        }
      ],
      "stateMutability": "view",
      "type": "function",
      "constant": true
    },
    {
      "inputs": [
        {
          "internalType": "string",
          "name": "_name",
          "type": "string"
        },
        {
          "internalType": "string",
          "name": "_link",
          "type": "string"
        }
      ],
      "name": "createWallet",
      "outputs": [],
      "stateMutability": "nonpayable",
      "type": "function"
    },
    {
      "inputs": [],
      "name": "getWallet",
      "outputs": [
        {
          "internalType": "string",
          "name": "name",
          "type": "string"
        },
        {
          "internalType": "string",
          "name": "link",
          "type": "string"
        },
        {
          "internalType": "address",
          "name": "walletAddress",
          "type": "address"
        }
      ],
      "stateMutability": "nonpayable",
      "type": "function"
    },
    {
      "inputs": [],
      "name": "donate",
      "outputs": [],
      "stateMutability": "payable",
      "type": "function",
      "payable": true
    },
    {
      "inputs": [],
      "name": "getDonationBalance",
      "outputs": [
        {
          "internalType": "uint256",
          "name": "",
          "type": "uint256"
        }
      ],
      "stateMutability": "view",
      "type": "function",
      "constant": true
    },
    {
      "inputs": [
        {
          "internalType": "address payable",
          "name": "_to",
          "type": "address"
        },
        {
          "internalType": "uint256",
          "name": "_amount",
          "type": "uint256"
        }
      ],
      "name": "releaseFunds",
      "outputs": [],
      "stateMutability": "payable",
      "type": "function",
      "payable": true
    }
  ],
  "bytecode": "0x608060405234801561001057600080fd5b50336000806101000a81548173ffffffffffffffffffffffffffffffffffffffff021916908373ffffffffffffffffffffffffffffffffffffffff16021790555061129b806100606000396000f3fe6080604052600436106100865760003560e01c806396cefc7b1161005957806396cefc7b14610137578063cc6cb19a14610176578063d18a42e1146101b4578063d6e982e5146101f2578063ed88c68e1461020e57610086565b8063132996041461008b57806381277079146100b8578063864db27b146100e15780638da5cb5b1461010c575b600080fd5b34801561009757600080fd5b506100a0610218565b6040516100af93929190610d99565b60405180910390f35b3480156100c457600080fd5b506100df60048036038101906100da9190610c66565b61045c565b005b3480156100ed57600080fd5b506100f6610595565b6040516101039190610e1e565b60405180910390f35b34801561011857600080fd5b5061012161059d565b60405161012e9190610d7e565b60405180910390f35b34801561014357600080fd5b5061015e60048036038101906101599190610c01565b6105c1565b60405161016d93929190610d99565b60405180910390f35b34801561018257600080fd5b5061019d60048036038101906101989190610c01565b61071b565b6040516101ab929190610ea7565b60405180910390f35b3480156101c057600080fd5b506101db60048036038101906101d69190610c01565b61073f565b6040516101e9929190610ea7565b60405180910390f35b61020c60048036038101906102079190610c2a565b610763565b005b610216610902565b005b6060806000600360003373ffffffffffffffffffffffffffffffffffffffff1673ffffffffffffffffffffffffffffffffffffffff168152602001908152602001600020600001805461026a9061105e565b80601f01602080910402602001604051908101604052809291908181526020018280546102969061105e565b80156102e35780601f106102b8576101008083540402835291602001916102e3565b820191906000526020600020905b8154815290600101906020018083116102c657829003601f168201915b50505050509250600360003373ffffffffffffffffffffffffffffffffffffffff1673ffffffffffffffffffffffffffffffffffffffff16815260200190815260200160002060010180546103379061105e565b80601f01602080910402602001604051908101604052809291908181526020018280546103639061105e565b80156103b05780601f10610385576101008083540402835291602001916103b0565b820191906000526020600020905b81548152906001019060200180831161039357829003601f168201915b50505050509150600360003373ffffffffffffffffffffffffffffffffffffffff1673ffffffffffffffffffffffffffffffffffffffff16815260200190815260200160002060020160009054906101000a900473ffffffffffffffffffffffffffffffffffffffff1690507f3aeb738a793a75c484a6330a6ddc614eea46fd5e18819e4062fc5e26ef43a8d983838360405161044f93929190610d99565b60405180910390a1909192565b600060405180606001604052808481526020018381526020013373ffffffffffffffffffffffffffffffffffffffff16815250905080600360003373ffffffffffffffffffffffffffffffffffffffff1673ffffffffffffffffffffffffffffffffffffffff16815260200190815260200160002060008201518160000190805190602001906104ed929190610ab7565b50602082015181600101908051906020019061050a929190610ab7565b5060408201518160020160006101000a81548173ffffffffffffffffffffffffffffffffffffffff021916908373ffffffffffffffffffffffffffffffffffffffff1602179055509050507f3aeb738a793a75c484a6330a6ddc614eea46fd5e18819e4062fc5e26ef43a8d983833360405161058893929190610d99565b60405180910390a1505050565b600047905090565b60008054906101000a900473ffffffffffffffffffffffffffffffffffffffff1681565b60036020528060005260406000206000915090508060000180546105e49061105e565b80601f01602080910402602001604051908101604052809291908181526020018280546106109061105e565b801561065d5780601f106106325761010080835404028352916020019161065d565b820191906000526020600020905b81548152906001019060200180831161064057829003601f168201915b5050505050908060010180546106729061105e565b80601f016020809104026020016040519081016040528092919081815260200182805461069e9061105e565b80156106eb5780601f106106c0576101008083540402835291602001916106eb565b820191906000526020600020905b8154815290600101906020018083116106ce57829003601f168201915b5050505050908060020160009054906101000a900473ffffffffffffffffffffffffffffffffffffffff16905083565b60016020528060005260406000206000915090508060000154908060010154905082565b60026020528060005260406000206000915090508060000154908060010154905082565b60008054906101000a900473ffffffffffffffffffffffffffffffffffffffff1673ffffffffffffffffffffffffffffffffffffffff163373ffffffffffffffffffffffffffffffffffffffff16146107f1576040517f08c379a00000000000000000000000000000000000000000000000000000000081526004016107e890610dde565b60405180910390fd5b6000600260003373ffffffffffffffffffffffffffffffffffffffff1673ffffffffffffffffffffffffffffffffffffffff1681526020019081526020016000206000015490506000811161087b576040517f08c379a000000000000000000000000000000000000000000000000000000000815260040161087290610dfe565b60405180910390fd5b8273ffffffffffffffffffffffffffffffffffffffff166108fc839081150290604051600060405180830381858888f193505050501580156108c1573d6000803e3d6000fd5b507fa228085e7275dcc4f28bf995f0505e0f611fe7023bef15856928c9233e3f6e028284426040516108f593929190610e39565b60405180910390a1505050565b34600260003373ffffffffffffffffffffffffffffffffffffffff1673ffffffffffffffffffffffffffffffffffffffff16815260200190815260200160002060000160008282546109549190610f42565b925050819055506000604051806040016040528034815260200142815250905080600260003373ffffffffffffffffffffffffffffffffffffffff1673ffffffffffffffffffffffffffffffffffffffff1681526020019081526020016000206002016000600260003373ffffffffffffffffffffffffffffffffffffffff1673ffffffffffffffffffffffffffffffffffffffff1681526020019081526020016000206001015481526020019081526020016000206000820151816000015560208201518160010155905050600260003373ffffffffffffffffffffffffffffffffffffffff1673ffffffffffffffffffffffffffffffffffffffff1681526020019081526020016000206001016000815480929190610a74906110c1565b91905055507fa228085e7275dcc4f28bf995f0505e0f611fe7023bef15856928c9233e3f6e02343342604051610aac93929190610e70565b60405180910390a150565b828054610ac39061105e565b90600052602060002090601f016020900481019282610ae55760008555610b2c565b82601f10610afe57805160ff1916838001178555610b2c565b82800160010185558215610b2c579182015b82811115610b2b578251825591602001919060010190610b10565b5b509050610b399190610b3d565b5090565b5b80821115610b56576000816000905550600101610b3e565b5090565b6000610b6d610b6884610ef5565b610ed0565b905082815260208101848484011115610b8557600080fd5b610b9084828561101c565b509392505050565b600081359050610ba781611220565b92915050565b600081359050610bbc81611237565b92915050565b600082601f830112610bd357600080fd5b8135610be3848260208601610b5a565b91505092915050565b600081359050610bfb8161124e565b92915050565b600060208284031215610c1357600080fd5b6000610c2184828501610b98565b91505092915050565b60008060408385031215610c3d57600080fd5b6000610c4b85828601610bad565b9250506020610c5c85828601610bec565b9150509250929050565b60008060408385031215610c7957600080fd5b600083013567ffffffffffffffff811115610c9357600080fd5b610c9f85828601610bc2565b925050602083013567ffffffffffffffff811115610cbc57600080fd5b610cc885828601610bc2565b9150509250929050565b610cdb81610fe6565b82525050565b610cea81610f98565b82525050565b6000610cfb82610f26565b610d058185610f31565b9350610d1581856020860161102b565b610d1e81611197565b840191505092915050565b6000610d36601583610f31565b9150610d41826111a8565b602082019050919050565b6000610d59602b83610f31565b9150610d64826111d1565b604082019050919050565b610d7881610fdc565b82525050565b6000602082019050610d936000830184610ce1565b92915050565b60006060820190508181036000830152610db38186610cf0565b90508181036020830152610dc78185610cf0565b9050610dd66040830184610ce1565b949350505050565b60006020820190508181036000830152610df781610d29565b9050919050565b60006020820190508181036000830152610e1781610d4c565b9050919050565b6000602082019050610e336000830184610d6f565b92915050565b6000606082019050610e4e6000830186610d6f565b610e5b6020830185610cd2565b610e686040830184610d6f565b949350505050565b6000606082019050610e856000830186610d6f565b610e926020830185610ce1565b610e9f6040830184610d6f565b949350505050565b6000604082019050610ebc6000830185610d6f565b610ec96020830184610d6f565b9392505050565b6000610eda610eeb565b9050610ee68282611090565b919050565b6000604051905090565b600067ffffffffffffffff821115610f1057610f0f611168565b5b610f1982611197565b9050602081019050919050565b600081519050919050565b600082825260208201905092915050565b6000610f4d82610fdc565b9150610f5883610fdc565b9250827fffffffffffffffffffffffffffffffffffffffffffffffffffffffffffffffff03821115610f8d57610f8c61110a565b5b828201905092915050565b6000610fa382610fbc565b9050919050565b6000610fb582610fbc565b9050919050565b600073ffffffffffffffffffffffffffffffffffffffff82169050919050565b6000819050919050565b6000610ff182610ff8565b9050919050565b60006110038261100a565b9050919050565b600061101582610fbc565b9050919050565b82818337600083830152505050565b60005b8381101561104957808201518184015260208101905061102e565b83811115611058576000848401525b50505050565b6000600282049050600182168061107657607f821691505b6020821081141561108a57611089611139565b5b50919050565b61109982611197565b810181811067ffffffffffffffff821117156110b8576110b7611168565b5b80604052505050565b60006110cc82610fdc565b91507fffffffffffffffffffffffffffffffffffffffffffffffffffffffffffffffff8214156110ff576110fe61110a565b5b600182019050919050565b7f4e487b7100000000000000000000000000000000000000000000000000000000600052601160045260246000fd5b7f4e487b7100000000000000000000000000000000000000000000000000000000600052602260045260246000fd5b7f4e487b7100000000000000000000000000000000000000000000000000000000600052604160045260246000fd5b6000601f19601f8301169050919050565b7f596f7520617265206e6f7420746865206f776e65720000000000000000000000600082015250565b7f596f7520646f6e2774206861766520656e6f75676820746f6b656e7320666f7260008201527f207769746864726177616c000000000000000000000000000000000000000000602082015250565b61122981610f98565b811461123457600080fd5b50565b61124081610faa565b811461124b57600080fd5b50565b61125781610fdc565b811461126257600080fd5b5056fea26469706673582212200acabdefa55ebaa92603e49cd714fc979a61fef7c5ef61b379c600d2065e611864736f6c63430008040033",
  "immutableReferences": {},
  "source": "// SPDX-License-Identifier: MIT\npragma solidity ^0.8.4;\n\ncontract CryptoKoffee {\n    address public owner;\n\n    struct Payment{\n        uint amount;\n        uint timeStamp;\n    }\n\n    struct WalletInfo{\n        string name;\n        string link;\n        address walletAddress;\n    }\n\n    struct Balance {\n        uint totalBalance;\n        uint numPayments;\n        mapping(uint => Payment) payments;\n    }\n\n    // Track donations made to project\n    mapping(address => Payment) public donations;\n    mapping(address => Balance) public balanceReceived;\n    mapping(address => WalletInfo) public walletMapping;\n\n    // Emit events \n    event DonationEvent(uint _amount, address doner, uint timeStamp);\n    event WalletInfoEvent(string  name, string  link, address walletAddress);\n\n    // Set project Name and Target amout when smart contract is being deployed.\n    constructor (){\n        owner = msg.sender;\n    }\n\n    modifier onlyOwner(){\n        require(msg.sender == owner, \"You are not the owner\");\n        _;\n    }\n    \n    // Create wallet\n    function createWallet(string memory _name, string memory _link) public {\n        WalletInfo memory _wallet = WalletInfo(_name, _link, msg.sender);\n        walletMapping[msg.sender] = _wallet;\n        emit WalletInfoEvent(_name, _link, msg.sender);\n    }\n    \n    function getWallet() public returns(string memory name, string memory link, address walletAddress) {\n        name = walletMapping[msg.sender].name;\n        link = walletMapping[msg.sender].link;\n        walletAddress = walletMapping[msg.sender].walletAddress;\n        // Emit events after getting wallet info data\n        emit WalletInfoEvent(name, link, walletAddress);\n        return (name, link,walletAddress);\n    }\n\n    // Donate function\n    function donate() public payable {\n        balanceReceived[msg.sender].totalBalance += msg.value;\n        Payment memory payment = Payment(msg.value, block.timestamp);\n        balanceReceived[msg.sender].payments[balanceReceived[msg.sender].numPayments] = payment;\n        balanceReceived[msg.sender].numPayments++;\n        emit DonationEvent(msg.value, msg.sender, block.timestamp);\n    }\n\n    // Get donation balance from contract\n    function getDonationBalance() public view returns(uint){\n        return address(this).balance;\n    }\n\n    // Release funds from contract to project \n    function releaseFunds(address payable _to, uint _amount) onlyOwner public payable {\n        uint _balance = balanceReceived[msg.sender].totalBalance;\n        require(_balance > 0, \"You don't have enough tokens for withdrawal\");\n        _to.transfer(_amount);\n        emit DonationEvent(_amount, _to, block.timestamp);\n\n    }\n}\n",
  "sourcePath": "/Users/kenmartey/Documents/dev_things/blockchain/cryptokoffee/CryptoKoffee/contracts/CryptoKoffee.sol",
  "compiler": {
    "name": "solc",
    "version": "0.8.4+commit.c7e474f2.Emscripten.clang"
  },
  "schemaVersion": "3.4.4",
  "updatedAt": "2022-06-28T04:11:46.776Z",
  "networkType": "ethereum",
  "devdoc": {
    "kind": "dev",
    "methods": {},
    "version": 1
  },
  "userdoc": {
    "kind": "user",
    "methods": {},
    "version": 1
  }
}